{
  "contractName": "owned",
  "abi": [
    {
      "inputs": [],
      "payable": false,
      "stateMutability": "nonpayable",
      "type": "constructor"
    },
    {
      "constant": false,
      "inputs": [],
      "name": "destroy",
      "outputs": [],
      "payable": false,
      "stateMutability": "nonpayable",
      "type": "function"
    }
  ],
  "bytecode": "0x608060405234801561001057600080fd5b50336000806101000a81548173ffffffffffffffffffffffffffffffffffffffff021916908373ffffffffffffffffffffffffffffffffffffffff1602179055506101ad806100606000396000f3fe608060405260043610610041576000357c0100000000000000000000000000000000000000000000000000000000900463ffffffff16806383197ef014610046575b600080fd5b34801561005257600080fd5b5061005b61005d565b005b6000809054906101000a900473ffffffffffffffffffffffffffffffffffffffff1673ffffffffffffffffffffffffffffffffffffffff163373ffffffffffffffffffffffffffffffffffffffff16141515610147576040517f08c379a000000000000000000000000000000000000000000000000000000000815260040180806020018281038252602e8152602001807f4f6e6c792074686520636f6e7472616374206f776e65722063616e2063616c6c81526020017f20746869732066756e6374696f6e00000000000000000000000000000000000081525060400191505060405180910390fd5b6000809054906101000a900473ffffffffffffffffffffffffffffffffffffffff1673ffffffffffffffffffffffffffffffffffffffff16fffea165627a7a72305820be3492035fbba522955e4786fc3f66340588ae1d22c0436817178aba7d25a5000029",
  "source": "pragma solidity ^0.5.0;\n\ncontract owned {\n\taddress payable owner;\n\n\t// Contract constructor: set owner\n\tconstructor() public {\n\t\towner = msg.sender;\n\t}\n\n\t// Access control modifier\n\tmodifier onlyOwner {\n\t    require(msg.sender == owner, \"Only the contract owner can call this function\");\n\t    _;\n\t}\n\n\t// Contract destructor\n\tfunction destroy() public onlyOwner {\n\t\tselfdestruct(owner);\n\t}\n\n}\n\ncontract Hello is owned {\n\n    string private name;\n\n\tevent NameChanged(string newName);\n\n    constructor() public {\n        name = \"nobody\";\n    }\n\n    function setName(string memory newName) public {\n        name = newName;\n        emit NameChanged(newName);\n    }\n\n    function getName() public view returns (string memory) {\n        return name;\n    }\n\n}\n",
  "sourcePath": "/home/INEAT-CONSEIL.FR/alexandrevan/ilab/poc-blockchain/ethereum/ethereum-helloworld/contracts/HelloPayable.sol",
  "compiler": {
    "name": "solc",
    "version": "0.5.0+commit.1d4f565a.Emscripten.clang"
  },
  "schemaVersion": "3.0.1",
  "updatedAt": "2019-04-12T11:27:28.995Z",
  "devdoc": {
    "methods": {}
  },
  "userdoc": {
    "methods": {}
  }
}