{
  "contractName": "PayableHello",
  "abi": [
    {
      "constant": false,
      "inputs": [],
      "name": "destroy",
      "outputs": [],
      "payable": false,
      "stateMutability": "nonpayable",
      "type": "function",
      "signature": "0x83197ef0"
    },
    {
      "inputs": [],
      "payable": false,
      "stateMutability": "nonpayable",
      "type": "constructor",
      "signature": "constructor"
    },
    {
      "payable": true,
      "stateMutability": "payable",
      "type": "fallback"
    },
    {
      "anonymous": false,
      "inputs": [
        {
          "indexed": false,
          "name": "newName",
          "type": "string"
        }
      ],
      "name": "NameChanged",
      "type": "event",
      "signature": "0x4737457377f528cc8afd815f73ecb8b05df80d047dbffc41c17750a4033592bc"
    },
    {
      "anonymous": false,
      "inputs": [
        {
          "indexed": false,
          "name": "userAddress",
          "type": "address"
        },
        {
          "indexed": false,
          "name": "value",
          "type": "uint256"
        }
      ],
      "name": "PaymentReceipt",
      "type": "event",
      "signature": "0xd569112a8d581494b4fc97b2922a374faa6154c8210432e4574fdc04341e2783"
    },
    {
      "anonymous": false,
      "inputs": [
        {
          "indexed": false,
          "name": "ownerAddress",
          "type": "address"
        },
        {
          "indexed": false,
          "name": "balance",
          "type": "uint256"
        }
      ],
      "name": "Withdraw",
      "type": "event",
      "signature": "0x884edad9ce6fa2440d8a54cc123490eb96d2768479d49ff9c7366125a9424364"
    },
    {
      "constant": false,
      "inputs": [
        {
          "name": "newName",
          "type": "string"
        }
      ],
      "name": "setName",
      "outputs": [],
      "payable": true,
      "stateMutability": "payable",
      "type": "function",
      "signature": "0xc47f0027"
    },
    {
      "constant": true,
      "inputs": [],
      "name": "getName",
      "outputs": [
        {
          "name": "",
          "type": "string"
        }
      ],
      "payable": false,
      "stateMutability": "view",
      "type": "function",
      "signature": "0x17d7de7c"
    },
    {
      "constant": false,
      "inputs": [],
      "name": "withdraw",
      "outputs": [],
      "payable": false,
      "stateMutability": "nonpayable",
      "type": "function",
      "signature": "0x3ccfd60b"
    }
  ],
  "bytecode": "0x608060405234801561001057600080fd5b50336000806101000a81548173ffffffffffffffffffffffffffffffffffffffff021916908373ffffffffffffffffffffffffffffffffffffffff1602179055506040805190810160405280600681526020017f6e6f626f647900000000000000000000000000000000000000000000000000008152506001908051906020019061009c9291906100a2565b50610147565b828054600181600116156101000203166002900490600052602060002090601f016020900481019282601f106100e357805160ff1916838001178555610111565b82800160010185558215610111579182015b828111156101105782518255916020019190600101906100f5565b5b50905061011e9190610122565b5090565b61014491905b80821115610140576000816000905550600101610128565b5090565b90565b6107d3806101566000396000f3fe608060405260043610610062576000357c0100000000000000000000000000000000000000000000000000000000900463ffffffff16806317d7de7c146100675780633ccfd60b146100f757806383197ef01461010e578063c47f002714610125575b600080fd5b34801561007357600080fd5b5061007c6101e0565b6040518080602001828103825283818151815260200191508051906020019080838360005b838110156100bc5780820151818401526020810190506100a1565b50505050905090810190601f1680156100e95780820380516001836020036101000a031916815260200191505b509250505060405180910390f35b34801561010357600080fd5b5061010c610282565b005b34801561011a57600080fd5b5061012361043d565b005b6101de6004803603602081101561013b57600080fd5b810190808035906020019064010000000081111561015857600080fd5b82018360208201111561016a57600080fd5b8035906020019184600183028401116401000000008311171561018c57600080fd5b91908080601f016020809104026020016040519081016040528093929190818152602001838380828437600081840152601f19601f820116905080830192505050505050509192919290505050610561565b005b606060018054600181600116156101000203166002900480601f0160208091040260200160405190810160405280929190818152602001828054600181600116156101000203166002900480156102785780601f1061024d57610100808354040283529160200191610278565b820191906000526020600020905b81548152906001019060200180831161025b57829003601f168201915b5050505050905090565b6000809054906101000a900473ffffffffffffffffffffffffffffffffffffffff1673ffffffffffffffffffffffffffffffffffffffff163373ffffffffffffffffffffffffffffffffffffffff1614151561036c576040517f08c379a000000000000000000000000000000000000000000000000000000000815260040180806020018281038252602e8152602001807f4f6e6c792074686520636f6e7472616374206f776e65722063616e2063616c6c81526020017f20746869732066756e6374696f6e00000000000000000000000000000000000081525060400191505060405180910390fd5b60003073ffffffffffffffffffffffffffffffffffffffff163190503373ffffffffffffffffffffffffffffffffffffffff166108fc829081150290604051600060405180830381858888f193505050501580156103ce573d6000803e3d6000fd5b507f884edad9ce6fa2440d8a54cc123490eb96d2768479d49ff9c7366125a94243643382604051808373ffffffffffffffffffffffffffffffffffffffff1673ffffffffffffffffffffffffffffffffffffffff1681526020018281526020019250505060405180910390a150565b6000809054906101000a900473ffffffffffffffffffffffffffffffffffffffff1673ffffffffffffffffffffffffffffffffffffffff163373ffffffffffffffffffffffffffffffffffffffff16141515610527576040517f08c379a000000000000000000000000000000000000000000000000000000000815260040180806020018281038252602e8152602001807f4f6e6c792074686520636f6e7472616374206f776e65722063616e2063616c6c81526020017f20746869732066756e6374696f6e00000000000000000000000000000000000081525060400191505060405180910390fd5b6000809054906101000a900473ffffffffffffffffffffffffffffffffffffffff1673ffffffffffffffffffffffffffffffffffffffff16ff5b671bc16d674ec8000034101515156105e1576040517f08c379a00000000000000000000000000000000000000000000000000000000081526004018080602001828103825260118152602001807f506179203220455448206f72206d6f726500000000000000000000000000000081525060200191505060405180910390fd5b80600190805190602001906105f7929190610702565b507f4737457377f528cc8afd815f73ecb8b05df80d047dbffc41c17750a4033592bc816040518080602001828103825283818151815260200191508051906020019080838360005b8381101561065a57808201518184015260208101905061063f565b50505050905090810190601f1680156106875780820380516001836020036101000a031916815260200191505b509250505060405180910390a17fd569112a8d581494b4fc97b2922a374faa6154c8210432e4574fdc04341e27833334604051808373ffffffffffffffffffffffffffffffffffffffff1673ffffffffffffffffffffffffffffffffffffffff1681526020018281526020019250505060405180910390a150565b828054600181600116156101000203166002900490600052602060002090601f016020900481019282601f1061074357805160ff1916838001178555610771565b82800160010185558215610771579182015b82811115610770578251825591602001919060010190610755565b5b50905061077e9190610782565b5090565b6107a491905b808211156107a0576000816000905550600101610788565b5090565b9056fea165627a7a72305820ed1e37127266788a2cb0717db3a419548b95641b73ad666163b663d0a57f9ed90029",
  "source": "pragma solidity ^0.5.0;\n\ncontract owned {\n\taddress payable owner;\n\n\t// Contract constructor: set owner\n\tconstructor() public {\n\t\towner = msg.sender;\n\t}\n\n\t// Access control modifier\n\tmodifier onlyOwner {\n\t    require(msg.sender == owner, \"Only the contract owner can call this function\");\n\t    _;\n\t}\n\n\t// Contract destructor\n\tfunction destroy() public onlyOwner {\n\t\tselfdestruct(owner);\n\t}\n\n}\n\ncontract PayableHello is owned {\n\n    string private name;\n\n\tevent NameChanged(string newName);\n\tevent PaymentReceipt(address userAddress, uint value);\n\tevent Withdraw(address ownerAddress, uint balance);\n\n    constructor() public {\n        name = \"nobody\";\n    }\n\n    function setName(string memory newName) public payable {\n    \trequire(msg.value >= 2 ether, \"Pay 2 ETH or more\");\n        name = newName;\n        emit NameChanged(newName);\n        emit PaymentReceipt(msg.sender, msg.value);\n    }\n\n    function getName() public view returns (string memory) {\n        return name;\n    }\n\n    function withdraw() public onlyOwner {\n    \tuint balance = address(this).balance;\n\t\tmsg.sender.transfer(balance);\n\t\temit Withdraw(msg.sender, balance);\n    }\n\n    function() external payable {\n        revert();\n    }\n\n}",
  "sourcePath": "/home/INEAT-CONSEIL.FR/alexandrevan/ilab/poc-blockchain/ethereum/ethereum-helloworld/contracts/PayableHello.sol",
  "compiler": {
    "name": "solc",
    "version": "0.5.0+commit.1d4f565a.Emscripten.clang"
  },
  "schemaVersion": "3.0.1",
  "updatedAt": "2019-04-27T09:03:59.302Z",
  "devdoc": {
    "methods": {}
  },
  "userdoc": {
    "methods": {}
  }
}